{
  "_format": "hh-sol-artifact-1",
  "contractName": "Vidispark",
  "sourceName": "contracts/Vidispark.sol",
  "abi": [
    {
      "inputs": [],
      "stateMutability": "nonpayable",
      "type": "constructor"
    },
    {
      "inputs": [],
      "name": "INITIAL_SUPPLY",
      "outputs": [
        {
          "internalType": "uint256",
          "name": "",
          "type": "uint256"
        }
      ],
      "stateMutability": "view",
      "type": "function"
    },
    {
      "inputs": [],
      "name": "TOKEN_DECIMALS",
      "outputs": [
        {
          "internalType": "uint8",
          "name": "",
          "type": "uint8"
        }
      ],
      "stateMutability": "view",
      "type": "function"
    },
    {
      "inputs": [],
      "name": "TOKEN_NAME",
      "outputs": [
        {
          "internalType": "string",
          "name": "",
          "type": "string"
        }
      ],
      "stateMutability": "view",
      "type": "function"
    },
    {
      "inputs": [],
      "name": "TOKEN_SYMBOL",
      "outputs": [
        {
          "internalType": "string",
          "name": "",
          "type": "string"
        }
      ],
      "stateMutability": "view",
      "type": "function"
    },
    {
      "inputs": [
        {
          "internalType": "uint256",
          "name": "",
          "type": "uint256"
        }
      ],
      "name": "achievements",
      "outputs": [
        {
          "internalType": "uint256",
          "name": "id",
          "type": "uint256"
        },
        {
          "internalType": "string",
          "name": "name",
          "type": "string"
        },
        {
          "internalType": "string",
          "name": "description",
          "type": "string"
        },
        {
          "internalType": "uint256",
          "name": "points",
          "type": "uint256"
        },
        {
          "internalType": "uint256",
          "name": "threshold",
          "type": "uint256"
        }
      ],
      "stateMutability": "view",
      "type": "function"
    },
    {
      "inputs": [
        {
          "internalType": "address",
          "name": "account",
          "type": "address"
        }
      ],
      "name": "addToWhitelist",
      "outputs": [],
      "stateMutability": "nonpayable",
      "type": "function"
    },
    {
      "inputs": [
        {
          "internalType": "uint256",
          "name": "index",
          "type": "uint256"
        }
      ],
      "name": "approveSponsorship",
      "outputs": [],
      "stateMutability": "nonpayable",
      "type": "function"
    },
    {
      "inputs": [],
      "name": "buyTokens",
      "outputs": [],
      "stateMutability": "payable",
      "type": "function"
    },
    {
      "inputs": [
        {
          "internalType": "uint256",
          "name": "index",
          "type": "uint256"
        }
      ],
      "name": "claimAchievement",
      "outputs": [],
      "stateMutability": "nonpayable",
      "type": "function"
    },
    {
      "inputs": [],
      "name": "claimTokens",
      "outputs": [],
      "stateMutability": "nonpayable",
      "type": "function"
    },
    {
      "inputs": [
        {
          "internalType": "uint256",
          "name": "id",
          "type": "uint256"
        },
        {
          "internalType": "string",
          "name": "name",
          "type": "string"
        },
        {
          "internalType": "string",
          "name": "description",
          "type": "string"
        },
        {
          "internalType": "uint256",
          "name": "points",
          "type": "uint256"
        },
        {
          "internalType": "uint256",
          "name": "threshold",
          "type": "uint256"
        }
      ],
      "name": "createAchievement",
      "outputs": [],
      "stateMutability": "nonpayable",
      "type": "function"
    },
    {
      "inputs": [
        {
          "internalType": "address",
          "name": "brand",
          "type": "address"
        },
        {
          "internalType": "string",
          "name": "sponsorshipType",
          "type": "string"
        },
        {
          "internalType": "string",
          "name": "description",
          "type": "string"
        },
        {
          "internalType": "uint256",
          "name": "startDate",
          "type": "uint256"
        },
        {
          "internalType": "uint256",
          "name": "endDate",
          "type": "uint256"
        },
        {
          "internalType": "uint256",
          "name": "amount",
          "type": "uint256"
        }
      ],
      "name": "createSponsorship",
      "outputs": [],
      "stateMutability": "nonpayable",
      "type": "function"
    },
    {
      "inputs": [
        {
          "internalType": "string",
          "name": "name",
          "type": "string"
        },
        {
          "internalType": "string",
          "name": "image",
          "type": "string"
        },
        {
          "internalType": "uint256",
          "name": "price",
          "type": "uint256"
        }
      ],
      "name": "mintNFT",
      "outputs": [],
      "stateMutability": "nonpayable",
      "type": "function"
    },
    {
      "inputs": [
        {
          "internalType": "uint256",
          "name": "",
          "type": "uint256"
        }
      ],
      "name": "nfts",
      "outputs": [
        {
          "internalType": "string",
          "name": "name",
          "type": "string"
        },
        {
          "internalType": "string",
          "name": "image",
          "type": "string"
        },
        {
          "internalType": "uint256",
          "name": "price",
          "type": "uint256"
        }
      ],
      "stateMutability": "view",
      "type": "function"
    },
    {
      "inputs": [],
      "name": "owner",
      "outputs": [
        {
          "internalType": "address",
          "name": "",
          "type": "address"
        }
      ],
      "stateMutability": "view",
      "type": "function"
    },
    {
      "inputs": [
        {
          "internalType": "address",
          "name": "",
          "type": "address"
        }
      ],
      "name": "points",
      "outputs": [
        {
          "internalType": "uint256",
          "name": "",
          "type": "uint256"
        }
      ],
      "stateMutability": "view",
      "type": "function"
    },
    {
      "inputs": [
        {
          "internalType": "uint256",
          "name": "index",
          "type": "uint256"
        }
      ],
      "name": "rejectSponsorship",
      "outputs": [],
      "stateMutability": "nonpayable",
      "type": "function"
    },
    {
      "inputs": [
        {
          "internalType": "address",
          "name": "account",
          "type": "address"
        }
      ],
      "name": "removeFromWhitelist",
      "outputs": [],
      "stateMutability": "nonpayable",
      "type": "function"
    },
    {
      "inputs": [
        {
          "internalType": "uint256",
          "name": "",
          "type": "uint256"
        }
      ],
      "name": "sponsorships",
      "outputs": [
        {
          "internalType": "address",
          "name": "brand",
          "type": "address"
        },
        {
          "internalType": "address",
          "name": "creator",
          "type": "address"
        },
        {
          "internalType": "string",
          "name": "sponsorshipType",
          "type": "string"
        },
        {
          "internalType": "string",
          "name": "description",
          "type": "string"
        },
        {
          "internalType": "uint256",
          "name": "startDate",
          "type": "uint256"
        },
        {
          "internalType": "uint256",
          "name": "endDate",
          "type": "uint256"
        },
        {
          "internalType": "uint256",
          "name": "amount",
          "type": "uint256"
        },
        {
          "internalType": "string",
          "name": "status",
          "type": "string"
        }
      ],
      "stateMutability": "view",
      "type": "function"
    },
    {
      "inputs": [],
      "name": "totalSupply",
      "outputs": [
        {
          "internalType": "uint256",
          "name": "",
          "type": "uint256"
        }
      ],
      "stateMutability": "view",
      "type": "function"
    },
    {
      "inputs": [
        {
          "internalType": "address",
          "name": "",
          "type": "address"
        }
      ],
      "name": "whitelist",
      "outputs": [
        {
          "internalType": "bool",
          "name": "",
          "type": "bool"
        }
      ],
      "stateMutability": "view",
      "type": "function"
    }
  ],
  "bytecode": "0x60806040523480156200001157600080fd5b50600680546001600160a01b031916331790556040805160808101825260006060820181815282528251602081810185528282528084019190915292820181905280805282528051805191927fad3228b676f7d3cd4284a5443f17f1962b36e491b30a40b2405849e597ba5fb5926200008e9284920190620000bd565b506020828101518051620000a99260018501920190620000bd565b5060408201518160020155905050620001a0565b828054620000cb9062000163565b90600052602060002090601f016020900481019282620000ef57600085556200013a565b82601f106200010a57805160ff19168380011785556200013a565b828001600101855582156200013a579182015b828111156200013a5782518255916020019190600101906200011d565b50620001489291506200014c565b5090565b5b808211156200014857600081556001016200014d565b600181811c908216806200017857607f821691505b602082108114156200019a57634e487b7160e01b600052602260045260246000fd5b50919050565b61165380620001b06000396000f3fe6080604052600436106100fa5760003560e01c806318160ddd146100ff5780631882140014610128578063229168ae1461016a578063265aa6211461018c57806327aed72e146101bb5780632a905318146101ec5780632d1338ee1461021b5780632ff2e9dc1461023b578063358b81661461025057806348c54b9d1461027d5780635b7f415c1461029257806364b30907146102b95780636a8b2d0a146102d95780638ab1d681146102f95780638da5cb5b146103195780639b19251a14610351578063a74194af14610391578063c9be9f5c146103c5578063d0febe4c146103e5578063e43252d7146103ed578063fd66a8a81461040d575b600080fd5b34801561010b57600080fd5b5061011560015481565b6040519081526020015b60405180910390f35b34801561013457600080fd5b5061015d604051806040016040528060098152602001682b2228102a37b5b2b760b91b81525081565b60405161011f91906110b6565b34801561017657600080fd5b5061018a610185366004611172565b61042d565b005b34801561019857600080fd5b506101ac6101a73660046111f0565b610537565b60405161011f93929190611209565b3480156101c757600080fd5b506101db6101d63660046111f0565b610669565b60405161011f95949392919061123f565b3480156101f857600080fd5b5061015d6040518060400160405280600381526020016205644560ec1b81525081565b34801561022757600080fd5b5061018a6102363660046111f0565b6107bb565b34801561024757600080fd5b50610115610864565b34801561025c57600080fd5b5061011561026b36600461129b565b60046020526000908152604090205481565b34801561028957600080fd5b5061018a610880565b34801561029e57600080fd5b506102a7601281565b60405160ff909116815260200161011f565b3480156102c557600080fd5b5061018a6102d43660046112b6565b610891565b3480156102e557600080fd5b5061018a6102f43660046111f0565b610918565b34801561030557600080fd5b5061018a61031436600461129b565b6109fe565b34801561032557600080fd5b50600654610339906001600160a01b031681565b6040516001600160a01b03909116815260200161011f565b34801561035d57600080fd5b5061038161036c36600461129b565b60026020526000908152604090205460ff1681565b604051901515815260200161011f565b34801561039d57600080fd5b506103b16103ac3660046111f0565b610a49565b60405161011f989796959493929190611322565b3480156103d157600080fd5b5061018a6103e03660046111f0565b610c43565b61018a610ccf565b3480156103f957600080fd5b5061018a61040836600461129b565b610d57565b34801561041957600080fd5b5061018a610428366004611398565b610da5565b6006546001600160a01b031633146104605760405162461bcd60e51b815260040161045790611427565b60405180910390fd5b6040805160a08101825286815260208082018781529282018690526060820185905260808201849052600580546001810182556000829052835191027f036b6384b5eca791c62761152d0c79bb0604c104a5fb6f4eb0703f3154bb3db08101918255935180519394859492936104fc937f036b6384b5eca791c62761152d0c79bb0604c104a5fb6f4eb0703f3154bb3db1909201920190610fd0565b5060408201518051610518916002840191602090910190610fd0565b5060608201518160030155608082015181600401555050505050505050565b60006020819052908152604090208054819061055290611476565b80601f016020809104026020016040519081016040528092919081815260200182805461057e90611476565b80156105cb5780601f106105a0576101008083540402835291602001916105cb565b820191906000526020600020905b8154815290600101906020018083116105ae57829003601f168201915b5050505050908060010180546105e090611476565b80601f016020809104026020016040519081016040528092919081815260200182805461060c90611476565b80156106595780601f1061062e57610100808354040283529160200191610659565b820191906000526020600020905b81548152906001019060200180831161063c57829003601f168201915b5050505050908060020154905083565b6005818154811061067957600080fd5b6000918252602090912060059091020180546001820180549193509061069e90611476565b80601f01602080910402602001604051908101604052809291908181526020018280546106ca90611476565b80156107175780601f106106ec57610100808354040283529160200191610717565b820191906000526020600020905b8154815290600101906020018083116106fa57829003601f168201915b50505050509080600201805461072c90611476565b80601f016020809104026020016040519081016040528092919081815260200182805461075890611476565b80156107a55780601f1061077a576101008083540402835291602001916107a5565b820191906000526020600020905b81548152906001019060200180831161078857829003601f168201915b5050505050908060030154908060040154905085565b6006546001600160a01b031633146107e55760405162461bcd60e51b815260040161045790611427565b6000600382815481106107fa576107fa6114b1565b9060005260206000209060080201905060405180604001604052806008815260200167105c1c1c9bdd995960c21b815250816007019080519060200190610842929190610fd0565b5080546006820154610860916001600160a01b031690600090610f2b565b5050565b6108706012600a6115c3565b61087d90620f42406115cf565b81565b606461088e33600083610f2b565b50565b600060015460016108a291906115ee565b90506108af338284610f2b565b60408051606081018252858152602080820186905281830185905260008481528082529290922081518051929391926108eb9284920190610fd0565b5060208281015180516109049260018501920190610fd0565b506040820151816002015590505050505050565b60006005828154811061092d5761092d6114b1565b600091825260208083206004600590930201828101543385529290915260409092205491925011156109c05760405162461bcd60e51b815260206004820152603660248201527f596f7520646f6e2774206861766520656e6f75676820706f696e747320746f2060448201527518db185a5b481d1a1a5cc81858da1a595d995b595b9d60521b6064820152608401610457565b600480820154336000908152602092909252604082208054919290916109e7908490611606565b925050819055506108603360008360030154610f2b565b6006546001600160a01b03163314610a285760405162461bcd60e51b815260040161045790611427565b6001600160a01b03166000908152600260205260409020805460ff19169055565b60038181548110610a5957600080fd5b60009182526020909120600890910201805460018201546002830180546001600160a01b039384169550929091169291610a9290611476565b80601f0160208091040260200160405190810160405280929190818152602001828054610abe90611476565b8015610b0b5780601f10610ae057610100808354040283529160200191610b0b565b820191906000526020600020905b815481529060010190602001808311610aee57829003601f168201915b505050505090806003018054610b2090611476565b80601f0160208091040260200160405190810160405280929190818152602001828054610b4c90611476565b8015610b995780601f10610b6e57610100808354040283529160200191610b99565b820191906000526020600020905b815481529060010190602001808311610b7c57829003601f168201915b505050505090806004015490806005015490806006015490806007018054610bc090611476565b80601f0160208091040260200160405190810160405280929190818152602001828054610bec90611476565b8015610c395780601f10610c0e57610100808354040283529160200191610c39565b820191906000526020600020905b815481529060010190602001808311610c1c57829003601f168201915b5050505050905088565b6006546001600160a01b03163314610c6d5760405162461bcd60e51b815260040161045790611427565b600060038281548110610c8257610c826114b1565b906000526020600020906008020190506040518060400160405280600881526020016714995a9958dd195960c21b815250816007019080519060200190610cca929190610fd0565b505050565b3360009081526002602052604090205460ff16610d3c5760405162461bcd60e51b815260206004820152602560248201527f596f7520617265206e6f742077686974656c697374656420746f2062757920746044820152646f6b656e7360d81b6064820152608401610457565b6000610d493460646115cf565b905061088e33600083610f2b565b6006546001600160a01b03163314610d815760405162461bcd60e51b815260040161045790611427565b6001600160a01b03166000908152600260205260409020805460ff19166001179055565b60408051610100810182526001600160a01b0380891682523360208084019182528385018a8152606085018a90526080850189905260a0850188905260c085018790528551808701909652600786526650656e64696e6760c81b8683015260e085019590955260038054600181018255600091909152845160089091027fc2575a0e9e593c00f959f8c92f12db2869c3395a3b0502d05e2516446f71f85b810180549286166001600160a01b031993841617815593517fc2575a0e9e593c00f959f8c92f12db2869c3395a3b0502d05e2516446f71f85c820180549190961692169190911790935593518051939485949293610ec9937fc2575a0e9e593c00f959f8c92f12db2869c3395a3b0502d05e2516446f71f85d9091019290910190610fd0565b5060608201518051610ee5916003840191602090910190610fd0565b506080820151600482015560a0820151600582015560c0820151600682015560e08201518051610f1f916007840191602090910190610fd0565b50505050505050505050565b6001600160a01b03831660009081526004602052604081208054839290610f539084906115ee565b9091555050604080516080810182526000606082018181528252825160208181018552828252808401919091528284018290528582528181529290208151805192939192610fa49284920190610fd0565b506020828101518051610fbd9260018501920190610fd0565b5060408201518160020155905050505050565b828054610fdc90611476565b90600052602060002090601f016020900481019282610ffe5760008555611044565b82601f1061101757805160ff1916838001178555611044565b82800160010185558215611044579182015b82811115611044578251825591602001919060010190611029565b50611050929150611054565b5090565b5b808211156110505760008155600101611055565b6000815180845260005b8181101561108f57602081850181015186830182015201611073565b818111156110a1576000602083870101525b50601f01601f19169290920160200192915050565b6020815260006110c96020830184611069565b9392505050565b634e487b7160e01b600052604160045260246000fd5b600082601f8301126110f757600080fd5b81356001600160401b0380821115611111576111116110d0565b604051601f8301601f19908116603f01168101908282118183101715611139576111396110d0565b8160405283815286602085880101111561115257600080fd5b836020870160208301376000602085830101528094505050505092915050565b600080600080600060a0868803121561118a57600080fd5b8535945060208601356001600160401b03808211156111a857600080fd5b6111b489838a016110e6565b955060408801359150808211156111ca57600080fd5b506111d7888289016110e6565b9598949750949560608101359550608001359392505050565b60006020828403121561120257600080fd5b5035919050565b60608152600061121c6060830186611069565b828103602084015261122e8186611069565b915050826040830152949350505050565b85815260a06020820152600061125860a0830187611069565b828103604084015261126a8187611069565b60608401959095525050608001529392505050565b80356001600160a01b038116811461129657600080fd5b919050565b6000602082840312156112ad57600080fd5b6110c98261127f565b6000806000606084860312156112cb57600080fd5b83356001600160401b03808211156112e257600080fd5b6112ee878388016110e6565b9450602086013591508082111561130457600080fd5b50611311868287016110e6565b925050604084013590509250925092565b6001600160a01b038981168252881660208201526101006040820181905260009061134f8382018a611069565b905082810360608401526113638189611069565b90508660808401528560a08401528460c084015282810360e08401526113898185611069565b9b9a5050505050505050505050565b60008060008060008060c087890312156113b157600080fd5b6113ba8761127f565b955060208701356001600160401b03808211156113d657600080fd5b6113e28a838b016110e6565b965060408901359150808211156113f857600080fd5b5061140589828a016110e6565b945050606087013592506080870135915060a087013590509295509295509295565b6020808252602f908201527f4f6e6c792074686520636f6e7472616374206f776e65722063616e207065726660408201526e37b936903a3434b99030b1ba34b7b760891b606082015260800190565b600181811c9082168061148a57607f821691505b602082108114156114ab57634e487b7160e01b600052602260045260246000fd5b50919050565b634e487b7160e01b600052603260045260246000fd5b634e487b7160e01b600052601160045260246000fd5b600181815b808511156115185781600019048211156114fe576114fe6114c7565b8085161561150b57918102915b93841c93908002906114e2565b509250929050565b60008261152f575060016115bd565b8161153c575060006115bd565b8160018114611552576002811461155c57611578565b60019150506115bd565b60ff84111561156d5761156d6114c7565b50506001821b6115bd565b5060208310610133831016604e8410600b841016171561159b575081810a6115bd565b6115a583836114dd565b80600019048211156115b9576115b96114c7565b0290505b92915050565b60006110c98383611520565b60008160001904831182151516156115e9576115e96114c7565b500290565b60008219821115611601576116016114c7565b500190565b600082821015611618576116186114c7565b50039056fea264697066735822122065af237e5acefc451be276b435c43ba123746292a75cedd261d03ca4d7f24f4364736f6c63430008090033",
  "linkReferences": {},
  "deployedLinkReferences": {}
}